{
  "_format": "hh-sol-artifact-1",
  "contractName": "Vault",
  "sourceName": "contracts/Vault.sol",
  "abi": [
    {
      "anonymous": false,
      "inputs": [
        {
          "indexed": true,
          "internalType": "uint256",
          "name": "documentId",
          "type": "uint256"
        },
        {
          "indexed": false,
          "internalType": "string",
          "name": "ipfsHash",
          "type": "string"
        },
        {
          "indexed": true,
          "internalType": "address",
          "name": "owner",
          "type": "address"
        }
      ],
      "name": "DocumentUploaded",
      "type": "event"
    },
    {
      "inputs": [
        {
          "internalType": "uint256",
          "name": "documentId",
          "type": "uint256"
        }
      ],
      "name": "getDocument",
      "outputs": [
        {
          "internalType": "string",
          "name": "",
          "type": "string"
        },
        {
          "internalType": "address",
          "name": "",
          "type": "address"
        },
        {
          "internalType": "uint256",
          "name": "",
          "type": "uint256"
        }
      ],
      "stateMutability": "view",
      "type": "function"
    },
    {
      "inputs": [],
      "name": "getDocumentCount",
      "outputs": [
        {
          "internalType": "uint256",
          "name": "",
          "type": "uint256"
        }
      ],
      "stateMutability": "view",
      "type": "function"
    },
    {
      "inputs": [
        {
          "internalType": "string",
          "name": "ipfsHash",
          "type": "string"
        }
      ],
      "name": "uploadDocument",
      "outputs": [],
      "stateMutability": "nonpayable",
      "type": "function"
    }
  ],
  "bytecode": "0x608060405234801561001057600080fd5b50610b54806100206000396000f3fe608060405234801561001057600080fd5b50600436106100415760003560e01c80633d1c2273146100465780633f9b250a14610064578063b7f5576d14610096575b600080fd5b61004e6100b2565b60405161005b91906103ba565b60405180910390f35b61007e60048036038101906100799190610415565b6100bc565b60405161008d93929190610513565b60405180910390f35b6100b060048036038101906100ab9190610686565b610242565b005b6000600154905090565b60606000806000841180156100d357506001548411155b610112576040517f08c379a00000000000000000000000000000000000000000000000000000000081526004016101099061071b565b60405180910390fd5b60008060008681526020019081526020016000206040518060600160405290816000820180546101419061076a565b80601f016020809104026020016040519081016040528092919081815260200182805461016d9061076a565b80156101ba5780601f1061018f576101008083540402835291602001916101ba565b820191906000526020600020905b81548152906001019060200180831161019d57829003601f168201915b505050505081526020016001820160009054906101000a900473ffffffffffffffffffffffffffffffffffffffff1673ffffffffffffffffffffffffffffffffffffffff1673ffffffffffffffffffffffffffffffffffffffff1681526020016002820154815250509050806000015181602001518260400151935093509350509193909250565b6000815111610286576040517f08c379a000000000000000000000000000000000000000000000000000000000815260040161027d906107e7565b60405180910390fd5b6001600081548092919061029990610836565b919050555060405180606001604052808281526020013373ffffffffffffffffffffffffffffffffffffffff16815260200142815250600080600154815260200190815260200160002060008201518160000190816102f89190610a2a565b5060208201518160010160006101000a81548173ffffffffffffffffffffffffffffffffffffffff021916908373ffffffffffffffffffffffffffffffffffffffff160217905550604082015181600201559050503373ffffffffffffffffffffffffffffffffffffffff166001547f4fd219cfe4cdb4cc7c30e1246b0a007173aa37b0ecbce767225031e7b310d5ea836040516103969190610afc565b60405180910390a350565b6000819050919050565b6103b4816103a1565b82525050565b60006020820190506103cf60008301846103ab565b92915050565b6000604051905090565b600080fd5b600080fd5b6103f2816103a1565b81146103fd57600080fd5b50565b60008135905061040f816103e9565b92915050565b60006020828403121561042b5761042a6103df565b5b600061043984828501610400565b91505092915050565b600081519050919050565b600082825260208201905092915050565b60005b8381101561047c578082015181840152602081019050610461565b60008484015250505050565b6000601f19601f8301169050919050565b60006104a482610442565b6104ae818561044d565b93506104be81856020860161045e565b6104c781610488565b840191505092915050565b600073ffffffffffffffffffffffffffffffffffffffff82169050919050565b60006104fd826104d2565b9050919050565b61050d816104f2565b82525050565b6000606082019050818103600083015261052d8186610499565b905061053c6020830185610504565b61054960408301846103ab565b949350505050565b600080fd5b600080fd5b7f4e487b7100000000000000000000000000000000000000000000000000000000600052604160045260246000fd5b61059382610488565b810181811067ffffffffffffffff821117156105b2576105b161055b565b5b80604052505050565b60006105c56103d5565b90506105d1828261058a565b919050565b600067ffffffffffffffff8211156105f1576105f061055b565b5b6105fa82610488565b9050602081019050919050565b82818337600083830152505050565b6000610629610624846105d6565b6105bb565b90508281526020810184848401111561064557610644610556565b5b610650848285610607565b509392505050565b600082601f83011261066d5761066c610551565b5b813561067d848260208601610616565b91505092915050565b60006020828403121561069c5761069b6103df565b5b600082013567ffffffffffffffff8111156106ba576106b96103e4565b5b6106c684828501610658565b91505092915050565b7f446f63756d656e74204944206f7574206f662072616e67650000000000000000600082015250565b600061070560188361044d565b9150610710826106cf565b602082019050919050565b60006020820190508181036000830152610734816106f8565b9050919050565b7f4e487b7100000000000000000000000000000000000000000000000000000000600052602260045260246000fd5b6000600282049050600182168061078257607f821691505b6020821081036107955761079461073b565b5b50919050565b7f4950465320686173682063616e6e6f7420626520656d70747900000000000000600082015250565b60006107d160198361044d565b91506107dc8261079b565b602082019050919050565b60006020820190508181036000830152610800816107c4565b9050919050565b7f4e487b7100000000000000000000000000000000000000000000000000000000600052601160045260246000fd5b6000610841826103a1565b91507fffffffffffffffffffffffffffffffffffffffffffffffffffffffffffffffff820361087357610872610807565b5b600182019050919050565b60008190508160005260206000209050919050565b60006020601f8301049050919050565b600082821b905092915050565b6000600883026108e07fffffffffffffffffffffffffffffffffffffffffffffffffffffffffffffffff826108a3565b6108ea86836108a3565b95508019841693508086168417925050509392505050565b6000819050919050565b600061092761092261091d846103a1565b610902565b6103a1565b9050919050565b6000819050919050565b6109418361090c565b61095561094d8261092e565b8484546108b0565b825550505050565b600090565b61096a61095d565b610975818484610938565b505050565b5b818110156109995761098e600082610962565b60018101905061097b565b5050565b601f8211156109de576109af8161087e565b6109b884610893565b810160208510156109c7578190505b6109db6109d385610893565b83018261097a565b50505b505050565b600082821c905092915050565b6000610a01600019846008026109e3565b1980831691505092915050565b6000610a1a83836109f0565b9150826002028217905092915050565b610a3382610442565b67ffffffffffffffff811115610a4c57610a4b61055b565b5b610a56825461076a565b610a6182828561099d565b600060209050601f831160018114610a945760008415610a82578287015190505b610a8c8582610a0e565b865550610af4565b601f198416610aa28661087e565b60005b82811015610aca57848901518255600182019150602085019450602081019050610aa5565b86831015610ae75784890151610ae3601f8916826109f0565b8355505b6001600288020188555050505b505050505050565b60006020820190508181036000830152610b168184610499565b90509291505056fea2646970667358221220a879c29fe415cf9fe1ff2db4d55e4f66a91adddf9c5d2a04b53159638829ad3c64736f6c63430008180033",
  "linkReferences": {},
  "deployedLinkReferences": {}
}